:0100000000FF
:0100010001FD
:0100020002FB
:0100030003F9
:0100040004F7
:0100050005F5
:0100060006F3
:0100070007F1
:0100080008EF
:0100090009ED
:01000A000AEB
:01000B000BE9
:01000C000CE7
:01000D000DE5
:01000E000EE3
:01000F000FE1
:0100100010DF
:0100110011DD
:0100120012DB
:0100130013D9
:0100140014D7
:0100150015D5
:0100160016D3
:0100170017D1
:0100180018CF
:0100190019CD
:01001A001ACB
:01001B001BC9
:01001C001CC7
:01001D001DC5
:01001E001EC3
:01001F001FC1
:0100200000DF
:0100210000DE
:0100220000DD
:0100230000DC
:0100240000DB
:0100250000DA
:0100260000D9
:0100270000D8
:0100280000D7
:0100290000D6
:01002A0000D5
:01002B0000D4
:01002C0000D3
:01002D0000D2
:01002E0000D1
:01002F0000D0
:0100300000CF
:0100310000CE
:0100320000CD
:0100330000CC
:0100340000CB
:0100350000CA
:0100360000C9
:0100370000C8
:0100380000C7
:0100390000C6
:01003A0000C5
:01003B0000C4
:01003C0000C3
:01003D0000C2
:01003E0000C1
:01003F0000C0
:0100400000BF
:0100410000BE
:0100420000BD
:0100430000BC
:0100440000BB
:0100450000BA
:0100460000B9
:0100470000B8
:0100480000B7
:0100490000B6
:01004A0000B5
:01004B0000B4
:01004C0000B3
:01004D0000B2
:01004E0000B1
:01004F0000B0
:0100500000AF
:0100510009A5
:010052000AA3
:010053000BA1
:010054000C9F
:010055000D9D
:010056000E9B
:010057000F99
:0100580000A7
:010059001195
:01005A001293
:01005B001391
:01005C00148F
:01005D00158D
:01005E00168B
:01005F001789
:01006000009F
:01006100009E
:01006200009D
:01006300009C
:01006400009B
:01006500009A
:010066000099
:010067000098
:010068000097
:01006900197D
:01006A001A7B
:01006B001B79
:01006C001C77
:01006D001D75
:01006E001E73
:01006F001F71
:01007000008F
:01007100008E
:01007200008D
:01007300008C
:01007400008B
:01007500008A
:010076000089
:010077000088
:010078000087
:010079000086
:01007A000085
:01007B000084
:01007C000083
:01007D000082
:01007E000081
:01007F000080
:00000001FF
